:020000040800F2
:1000000058070020D501000893090008E5070008FB
:10001000F10800088D040008710F000800000000BE
:10002000000000000000000000000000D50A0008E9
:1000300021060008000000000D0A0008F10B00086E
:10004000EF010008EF010008EF010008EF010008D0
:10005000EF010008EF010008EF010008EF010008C0
:10006000EF010008EF010008EF010008EF010008B0
:10007000EF010008EF010008EF010008EF010008A0
:10008000EF010008EF010008EF010008EF01000890
:10009000EF010008EF010008EF010008EF01000880
:1000A000EF010008EF010008EF010008EF01000870
:1000B000350C0008EF010008EF010008EF0100080F
:1000C000EF010008EF010008EF010008EF01000850
:1000D000EF010008D50D0008EF010008EF0100084E
:1000E000A7060008EF010008EF010008EF01000873
:1000F000EF010008EF010008EF010008EF01000820
:10010000EF010008EF010008EF010008EF0100080F
:10011000EF010008EF010008EF010008EF010008FF
:10012000EF010008EF010008EF010008EF010008EF
:1001300000F002F800F03FF80AA090E8000C8244BA
:100140008344AAF10107DA4501D100F034F8AFF297
:10015000090EBAE80F0013F0010F18BFFB1A43F0A5
:10016000010318470C1000002C100000103A24BFA7
:1001700078C878C1FAD8520724BF30C830C144BF0C
:1001800004680C607047000000230024002500264E
:10019000103A28BF78C1FBD8520728BF30C148BFEA
:1001A0000B607047642900F07780002070471FB50E
:1001B0001FBD10B510BD00F037F91146FFF7F7FF6E
:1001C00000F004FF00F055F903B4FFF7F2FF03BCA1
:1001D00000F0E8FE0948804709480047FEE7FEE7CF
:1001E000FEE7FEE7FEE7FEE7FEE7FEE7FEE7FEE7E7
:1001F00004480549054A064B70470000F50B000806
:100200003101000858010020580700205803002041
:1002100058030020704700000FB4044910B503AA2A
:10022000029800F0D3F810BC5DF814FB2400002005
:100230002DE9F0410E460446002020622046E16888
:10024000884730B3252805D0D4E901219047206A9A
:10025000401CF2E7E168204600278847050018D0D7
:10026000A5F14100192802D820354FF40067324625
:10027000294620462760FFF795FF40B1012804D0AA
:10028000F61D26F007060836D8E7361DD6E72846BD
:10029000DAE7206ABDE8F0812DE9F0410646002446
:1002A00010687529314616A510D0AFF300800028DC
:1002B00002DA404213A507E031688A0701D512A58A
:1002C00002E0490704D511A5012401E0AFF3008045
:1002D00000210A2206F1240709E0B0FBF2FCB0FB82
:1002E000F2F302FB1C00303078541846491C0028F9
:1002F000F3D123462A463046BDE8F04100F00CB861
:10030000000000002D0000002B0000002000000075
:1003100070477047704770472DE9F0470D46994682
:100320009246044600F124080168880604D5E06975
:1003300021F01001216000E00120A84201DD471BEF
:1003400000E00027A1697A1902EB0900081AA061F0
:100350002078C00602D42046AFF30080002608E0D3
:10036000D4E901211AF806009047206A401C761C47
:1003700020624E45F4DB2078C0060AD52046AFF354
:10038000008006E0D4E9012130209047206A401C1B
:100390002062381EA7F10107F4DC07E0D4E901214F
:1003A00018F805009047206A401C2062281EA5F11D
:1003B0000105F3DC2046AFF300802078000602D56B
:1003C0000220BDE8F0870120FBE70000074B70B575
:1003D0000D467B4400F011F80446284600F020F852
:1003E00010B14FF0FF3070BD204670BDDF0B000034
:1003F00001694A1C02610878704700B58FB0CDE9E9
:1004000001310021059105497944CDE903101146D8
:100410006846FFF70DFF0FB000BD0000E5FFFFFFCE
:10042000007B00F080007047754600F02BF8AE4668
:1004300005006946534620F00700854618B020B5F0
:10044000FFF7D6FEBDE820404FF000064FF0000752
:100450004FF000084FF0000B21F00701AC46ACE86C
:10046000C009ACE8C009ACE8C009ACE8C0098D46D9
:10047000704710B50446AFF300802046BDE8104039
:10048000FFF7A2BE00487047F8000020FEE700001A
:1004900005496FF027000870044908700449087086
:1004A0000449087070470000040000200500002087
:1004B0000600002007000020054806490078087063
:1004C0000549087005490870054908707047000023
:1004D0002D00002004000020050000200600002060
:1004E0000700002006496FF01300064A0870282113
:1004F00011700549087005493220087070470000E6
:100500000400002005000020060000200700002055
:100510002DE9F041284D1021284600F061F9042111
:10052000284600F05DF92548E914264C90F9002092
:100530002348002A1BDD2368934202D200F050F9C1
:1005400001E000F04BF90121284600F047F91E4870
:100550001E4F4FF4007690F90000002813DD21684B
:1005600081421FD24021284600F03AF91EE0E8DA25
:10057000236852429342E4D200F030F90121284628
:1005800000F02EF9E3E70DDA21684042814209D2FA
:100590004021284600F022F931463846BDE8F041B6
:1005A00000F01EB94021284600F018F931463846BF
:1005B000BDE8F04100F012B9001401400500002030
:1005C0000010014000000020060000200020014033
:1005D00006492820074A087005496FF01300087083
:1005E0003221117004490870704700000400002097
:1005F000050000200600002007000020044900201C
:10060000087004490870044908700449087070476C
:100610000400002005000020060000200700002044
:10062000704710B5044602E08C2000F005F8641E07
:10063000E4B2F9D210BD000031B50C4D0098012193
:1006400084B2284600F056FB2146284600F072FB93
:1006500003E0284600F058FB0446012CF9D8284650
:10066000BDE83840002100F045BB00000004004018
:1006700000EBC0014FF0E0204161016941F0010150
:1006800001610169C903FCD50021016181617047E5
:1006900000B502464FF47A7302E01846FFF7E8FF10
:1006A000521EFAD200BD10B54FF48064204600F00F
:1006B00011F8002806D0204600F006F8BDE81040EA
:1006C00000F092B810BD00000149086070470000BA
:1006D00014040140064A014600201268044B0A40F7
:1006E00014331B680B4202D0002A00D0012070474F
:1006F0000004014010B50121042000F095F901210A
:10070000082000F091F90121102000F08DF901215D
:10071000202000F089F90121402000F085F9012115
:10072000802000F081F90121BDE81040080200F0AE
:100730007BB9F0B5CC78002204F00F03E40601D5B4
:100740008C7823430C784FF00F0C14F0FF0F4FF010
:10075000010E1BD005680E880EFA02F42640A64250
:1007600010D196000CFA06F725EA070703FA06F5FA
:10077000CE783D43282E02D0482E02D002E04461BC
:1007800000E00461521C082AE5D305600A88FF2AAC
:100790001CD94468002202F108060EFA06F50E88FC
:1007A0002E40AE420ED196000CFA06F7BC4303FA77
:1007B00006F7CE783C43282E00D14561CE78482EEE
:1007C00000D10561521C082AE5D34460F0BD024601
:1007D000002092680A4200D00120704741617047B2
:1007E00001617047FEE700002DE9F04700240F206B
:1007F000FFF717FF3A4E4FF4806739463046FFF750
:10080000E6FF012865D037492820087002E0012062
:10081000FFF707FF39463046FFF7D9FF0028F6D02B
:10082000DFF8C4900025B046002602E00120FFF763
:10083000F8FE39464046FFF7CAFF0028F6D102E02D
:100840000120FFF7EEFE39464046FFF7C0FF0028C3
:10085000F6D006E00120FFF7E4FE641CE4B21E2C93
:1008600037D239464046FFF7B2FF0028F2D119F8D7
:1008700005004946400809F80500082C03D340F05C
:10088000800009F80500761C0024F6B2082ED0D3AB
:100890006D1CEDB2042DC7D3C97899F80200C94385
:1008A000C9B2884215D11149432816D005DC152854
:1008B00009D040280DD1492006E044280BD0462815
:1008C00007D1412000E04220087007490120491E5D
:1008D0000870BDE8F0874320F6E74420F4E7000005
:1008E000001401400C000020290000200A00002014
:1008F000FEE70000F8B54FF40050ADF8000002200C
:100900008DF802001C4E10248DF8034069463046D5
:10091000FFF70FFFE501ADF8005069463046FFF7DD
:1009200008FFADF8005069461448FFF702FF0120A8
:10093000134DADF8000069462846FFF7FAFE402047
:10094000ADF8000069462846FFF7F3FE6001ADF8F8
:10095000000069463046FFF7ECFEADF800406946FE
:100960002846FFF7E6FE0420ADF800006946284659
:10097000FFF7DFFEF8BD000000200140001001403D
:100980000014014010B5FFF7B5FFBDE81040FFF7B8
:1009900035BE704730B50F23C27801780125F2B11A
:1009A000144A126801F1E02102F4E062C2F5E0624B
:1009B000120AC2F10404D3404278A24084781C4059
:1009C0001443220181F80024007800F01F018D40BB
:1009D0004009800000F1E020C0F8005130BD01F076
:1009E0001F0085404809800000F1E020C0F88051D8
:1009F00030BD00000CED00E00249084302490860E8
:100A0000704700000000FA050CED00E070470000A0
:100A1000044A0029D16901D0014300E08143D1613A
:100A20007047000000100240044A0029916901D07B
:100A3000014300E0814391617047000000100240D3
:100A400030B5204A5168204B11F00C0103D0042925
:100A500001D0082901D0036012E05168536801F405
:100A600070114FF0020413F4803F04EB914102D067
:100A700053689B0301D5154B00E0134B59430160AC
:100A800051680F2303EA1111114B5C5C0168E140CE
:100A900041605468072505EA14241C5D21FA04F41A
:100AA0008460546805EAD4241B5DD940C160526853
:100AB000032303EA9232064B1B1F9A5CB1FBF2F14F
:100AC000016130BD0010024000127A0000093D00B3
:100AD00011000020704700002DE9F041184D4FF43F
:100AE000807739462846FFF772FE4126154C0128CB
:100AF0000BD110212846FFF76AFE012805D14021BD
:100B00002846FFF764FE012811D040212846FFF750
:100B10005EFE01280ED010212846FFF758FE01285E
:100B20000AD039462846FFF752FE012800D1267028
:100B3000BDE8F081442000E043202070F8E7000089
:100B4000002001400A0000200CB500222648009237
:100B50000192016841F4803101604FF4A0630168A3
:100B600001F4003101910099491C0091019911B9DA
:100B700000999942F3D10168890333D5012101918C
:100B80001A490A6842F010020A600A6822F0030259
:100B90000A600A6842F002020A60416841604168E6
:100BA0004160416841F480614160416821F47C11F9
:100BB0004160416841F4E8114160016841F0807191
:100BC000016001688901FCD5416821F003014160A1
:100BD000416841F0020141604168C1F3810102298D
:100BE000FAD10CBD01920CBD001002400020024061
:100BF000704700000C48016841F001010160416844
:100C00000A4A114041600168094A114001600168C7
:100C100021F480210160416821F4FE0141604FF41C
:100C20001F018160FFF790BF001002400000FFF835
:100C3000FFFFF6FE10B501218C07204600F066F894
:100C400000281BD00121204600F051F80C490878FB
:100C5000401CC0B208700A2810D300240C70094947
:100C6000094A0868401C086013785B1C137032281E
:100C700000D30C60BDE81040FFF74ABC10BD000077
:100C80000900002000000020080000207FB501219D
:100C90000846FFF7BDFE6320ADF804004720ADF81D
:100CA000000000244FF08045ADF80640ADF802404A
:100CB0006946284600F040F80121284600F017F860
:100CC00001221146284600F02DF80121284600F0A7
:100CD00011F81C208DF80C008DF80D4001208DF8C6
:100CE0000E008DF80F0003A8FFF754FE7FBDC94327
:100CF000018270470029018802D041F0010101E022
:100D000021F0010101807047808C7047024600206D
:100D1000138A92890B4202EA010202D0002A00D013
:100D200001207047002A828901D00A4300E08A43EB
:100D3000828170478184704730B502881B4C1C4DFE
:100D4000A0420DD0A8420BD0B0F1804F08D0194B73
:100D5000984205D0184B984202D0184B984203D1C4
:100D600022F070034A881A43154B984206D0154B5F
:100D7000984203D022F44073CA881A4302808A88BA
:100D800082850A880285A0420AD0A84208D00E4A6D
:100D9000904205D00D4A904202D00D4A904201D1B6
:100DA000097A01860121818230BD0000002C0140BA
:100DB000003401400004004000080040000C0040E6
:100DC0000010004000140040004001400044014079
:100DD0000048014070B5154C40F22551204600F006
:100DE00035F800280ED0204600F0BEF8104AC1B2F7
:100DF0001088030406D444044FF0000306D50A29E2
:100E000001D0138070BD40F400400DE00D2909D0E1
:100E1000C0F30D04074D401C80B229551080C7282F
:100E2000EFD870BD40F48040108070BD00380140A4
:100E300022000020300000200029818902D041F4E6
:100E4000005101E021F400518181704770B501F03B
:100E50001F0501260024C1F3421306FA05F2012BF7
:100E60000FD0022B0FD0838A4FEA11210088134242
:100E700006FA01F600EA060001D000B1012420467E
:100E800070BD8389F0E7038AEEE710B5C1F3421322
:100E900001F01F040121A140012B07D0022B07D034
:100EA0001430002A026805D00A4304E00C30F8E749
:100EB0001030F6E78A43026010BD000030B50446EA
:100EC000008A85B00D464CF6FF710840E988014361
:100ED0002182A0894EF6F3110840A9882A8911437E
:100EE0006A8902431143A181A08A4FF6FF4108405D
:100EF000A9890143A1826846FFF7A2FD19488442EF
:100F000001D1039800E00298A189090400EBC00117
:100F100001EB0010296801D5490000E08900B0FB11
:100F2000F1F06422B0FBF2F109010B096FF0180532
:100F30006B4300EB8300A3891D044FF0320306D5F9
:100F400003EBC000B0FBF2F000F0070005E003EB9C
:100F50000010B0FBF2F000F00F000843208105B054
:100F600030BD0000003801408088C0F308007047A1
:100F7000FEE7000038B54FF40044ADF80040102003
:100F80008DF803000320064D8DF8020069462846BF
:100F9000FFF7CFFB21462846FFF722FC38BD0000B3
:100FA0000020014070474FF0E020016921F004016A
:100FB0000161704704490A885206FCD5024AC1B251
:100FC000121D11807047000000380140FFF7EBFF51
:100FD000FFF790FBFFF7CEFF4FF4A060FFF70CFD8B
:100FE0004FF4E13000F074F8FFF750FEFFF7CAFC51
:100FF00042F21070FFF74CFB2BA0FFF70DF92E4CBF
:101000002E4D00262680DFF8B8802E702088000440
:1010100023D5FFF7F3FA20882A4BC0F30D020020F6
:101020000CE0195C012A01F00F0104D0022A03D15F
:1010300078B12F7839442970401C80B29042F0D3A7
:1010400095F9001020A0FFF7E7F82680FFF734FAA3
:10105000DCE701EB81014900EDE7FFF73DFD98F981
:10106000012098F900008242D0D088F80100413870
:10107000092814D2DFE800F005080B0E1313131330
:101080001100FFF719FA0AE0FFF702FA07E0FFF78D
:1010900029FA04E0FFF79CFA01E0FFF7AFFA0A2013
:1010A000FFF7F6FAB2E700000D0A49606D2072659D
:1010B0006164790D0A0D0A00220000202D00002035
:1010C0000A0000203000002025640A0D0A000000FC
:1010D00070B5054686B0012144F20400FFF7A4FC78
:1010E0004FF40070ADF8100003248DF81240182062
:1010F0001D4E8DF8130004A93046FFF71AFB30157A
:10110000ADF8100004208DF8130004A93046FFF755
:1011100010FB25208DF814008DF815408DF8164031
:1011200001208DF8170005A8FFF734FC0020ADF86A
:101130000400ADF80600ADF80800ADF80C000C2076
:101140000A4CADF80A00009569462046FFF7B6FE46
:10115000012240F225512046FFF797FE012120464B
:10116000FFF76AFE06B070BD00080140003801407C
:101170009011000800000020300000006C01000801
:10118000C011000830000020280700008801000876
:101190000000000028282828000049490002040611
:1011A000080000000001020304010203040607080E
:1011B0000900000000000000000000000000000026
:0400000508000131BD
:00000001FF
